HTEST-PO-001         120368              20260326ENPRO INDUSTRIES    SYSTEM              QTE-2026-001                             
LTEST-PO-001         00001FILT-MAST-001                 000000100000000001250000EA        20260415                                
LTEST-PO-001         00002FILT-MAST-002                 000000050000000000899000EA        20260415                                
TTEST-PO-001         00002000000000169950                                                                                         
